{
  "_format": "hh-sol-artifact-1",
  "contractName": "MoaiContract",
  "sourceName": "contracts/MoaiContract.sol",
  "abi": [
    {
      "inputs": [
        {
          "internalType": "uint256",
          "name": "_standardAmount",
          "type": "uint256"
        },
        {
          "internalType": "address",
          "name": "_contractAddress",
          "type": "address"
        }
      ],
      "stateMutability": "nonpayable",
      "type": "constructor"
    },
    {
      "anonymous": false,
      "inputs": [
        {
          "indexed": true,
          "internalType": "address",
          "name": "member",
          "type": "address"
        },
        {
          "indexed": false,
          "internalType": "uint256",
          "name": "amount",
          "type": "uint256"
        }
      ],
      "name": "Contribution",
      "type": "event"
    },
    {
      "anonymous": false,
      "inputs": [
        {
          "indexed": true,
          "internalType": "address",
          "name": "recipient",
          "type": "address"
        },
        {
          "indexed": false,
          "internalType": "uint256",
          "name": "amount",
          "type": "uint256"
        }
      ],
      "name": "FundsNotSent",
      "type": "event"
    },
    {
      "anonymous": false,
      "inputs": [
        {
          "indexed": true,
          "internalType": "address",
          "name": "recipient",
          "type": "address"
        },
        {
          "indexed": false,
          "internalType": "uint256",
          "name": "amount",
          "type": "uint256"
        }
      ],
      "name": "FundsSent",
      "type": "event"
    },
    {
      "anonymous": false,
      "inputs": [
        {
          "indexed": true,
          "internalType": "address",
          "name": "member",
          "type": "address"
        }
      ],
      "name": "MemberAdded",
      "type": "event"
    },
    {
      "anonymous": false,
      "inputs": [
        {
          "indexed": false,
          "internalType": "string",
          "name": "title",
          "type": "string"
        },
        {
          "indexed": false,
          "internalType": "string",
          "name": "message",
          "type": "string"
        }
      ],
      "name": "NotificiationBroadcasted",
      "type": "event"
    },
    {
      "anonymous": false,
      "inputs": [
        {
          "indexed": true,
          "internalType": "address",
          "name": "member",
          "type": "address"
        },
        {
          "indexed": false,
          "internalType": "string",
          "name": "title",
          "type": "string"
        },
        {
          "indexed": false,
          "internalType": "string",
          "name": "message",
          "type": "string"
        }
      ],
      "name": "TargettedPushNotificationSent",
      "type": "event"
    },
    {
      "anonymous": false,
      "inputs": [
        {
          "indexed": true,
          "internalType": "address",
          "name": "voter",
          "type": "address"
        },
        {
          "indexed": false,
          "internalType": "bool",
          "name": "vote",
          "type": "bool"
        }
      ],
      "name": "VoteCasted",
      "type": "event"
    },
    {
      "anonymous": false,
      "inputs": [
        {
          "indexed": true,
          "internalType": "address",
          "name": "initiator",
          "type": "address"
        },
        {
          "indexed": true,
          "internalType": "address",
          "name": "recipient",
          "type": "address"
        },
        {
          "indexed": false,
          "internalType": "uint256",
          "name": "amount",
          "type": "uint256"
        }
      ],
      "name": "VotingStarted",
      "type": "event"
    },
    {
      "inputs": [
        {
          "internalType": "address",
          "name": "_member",
          "type": "address"
        }
      ],
      "name": "addMember",
      "outputs": [],
      "stateMutability": "nonpayable",
      "type": "function"
    },
    {
      "inputs": [],
      "name": "admin",
      "outputs": [
        {
          "internalType": "address",
          "name": "",
          "type": "address"
        }
      ],
      "stateMutability": "view",
      "type": "function"
    },
    {
      "inputs": [
        {
          "internalType": "bool",
          "name": "_vote",
          "type": "bool"
        }
      ],
      "name": "castVote",
      "outputs": [],
      "stateMutability": "nonpayable",
      "type": "function"
    },
    {
      "inputs": [],
      "name": "contribute",
      "outputs": [],
      "stateMutability": "payable",
      "type": "function"
    },
    {
      "inputs": [],
      "name": "getContractBalance",
      "outputs": [
        {
          "internalType": "uint256",
          "name": "",
          "type": "uint256"
        }
      ],
      "stateMutability": "view",
      "type": "function"
    },
    {
      "inputs": [
        {
          "internalType": "address",
          "name": "_recipient",
          "type": "address"
        },
        {
          "internalType": "uint256",
          "name": "_amount",
          "type": "uint256"
        }
      ],
      "name": "initiateTransfer",
      "outputs": [],
      "stateMutability": "nonpayable",
      "type": "function"
    },
    {
      "inputs": [
        {
          "internalType": "uint256",
          "name": "",
          "type": "uint256"
        }
      ],
      "name": "memberAddresses",
      "outputs": [
        {
          "internalType": "address",
          "name": "",
          "type": "address"
        }
      ],
      "stateMutability": "view",
      "type": "function"
    },
    {
      "inputs": [
        {
          "internalType": "address",
          "name": "",
          "type": "address"
        }
      ],
      "name": "members",
      "outputs": [
        {
          "internalType": "bool",
          "name": "exists",
          "type": "bool"
        },
        {
          "internalType": "uint256",
          "name": "balance",
          "type": "uint256"
        },
        {
          "internalType": "bool",
          "name": "hasVoted",
          "type": "bool"
        }
      ],
      "stateMutability": "view",
      "type": "function"
    },
    {
      "inputs": [],
      "name": "pushProtocolContractAddress",
      "outputs": [
        {
          "internalType": "address",
          "name": "",
          "type": "address"
        }
      ],
      "stateMutability": "view",
      "type": "function"
    },
    {
      "inputs": [
        {
          "internalType": "string",
          "name": "title",
          "type": "string"
        },
        {
          "internalType": "string",
          "name": "message",
          "type": "string"
        }
      ],
      "name": "sendBroadcast",
      "outputs": [],
      "stateMutability": "payable",
      "type": "function"
    },
    {
      "inputs": [
        {
          "internalType": "address",
          "name": "receiver",
          "type": "address"
        },
        {
          "internalType": "string",
          "name": "title",
          "type": "string"
        },
        {
          "internalType": "string",
          "name": "message",
          "type": "string"
        }
      ],
      "name": "sendTargettedNotification",
      "outputs": [],
      "stateMutability": "payable",
      "type": "function"
    },
    {
      "inputs": [],
      "name": "standardAmount",
      "outputs": [
        {
          "internalType": "uint256",
          "name": "",
          "type": "uint256"
        }
      ],
      "stateMutability": "view",
      "type": "function"
    },
    {
      "inputs": [
        {
          "internalType": "address",
          "name": "_recipient",
          "type": "address"
        },
        {
          "internalType": "uint256",
          "name": "_amount",
          "type": "uint256"
        }
      ],
      "name": "startVoting",
      "outputs": [],
      "stateMutability": "nonpayable",
      "type": "function"
    }
  ],
  "bytecode": "0x60806040523480156200001157600080fd5b50604051620021023803806200210283398181016040528101906200003791906200016c565b336000806101000a81548173ffffffffffffffffffffffffffffffffffffffff021916908373ffffffffffffffffffffffffffffffffffffffff1602179055508160018190555080600260006101000a81548173ffffffffffffffffffffffffffffffffffffffff021916908373ffffffffffffffffffffffffffffffffffffffff1602179055505050620001b3565b600080fd5b6000819050919050565b620000e181620000cc565b8114620000ed57600080fd5b50565b6000815190506200010181620000d6565b92915050565b600073ffffffffffffffffffffffffffffffffffffffff82169050919050565b6000620001348262000107565b9050919050565b620001468162000127565b81146200015257600080fd5b50565b60008151905062000166816200013b565b92915050565b60008060408385031215620001865762000185620000c7565b5b60006200019685828601620000f0565b9250506020620001a98582860162000155565b9150509250929050565b611f3f80620001c36000396000f3fe6080604052600436106100c25760003560e01c8063b504cd1e1161007f578063ca6d56dc11610059578063ca6d56dc1461023a578063cc4e629914610263578063d7bb99ba146102a0578063f851a440146102aa576100c2565b8063b504cd1e146101ca578063b6fb1d2d146101f3578063c97136631461020f576100c2565b806308ae4b0c146100c75780630b366fba146101065780632d9375a31461013157806343abf12d1461015a5780636f9fb98a146101765780637ace48e7146101a1575b600080fd5b3480156100d357600080fd5b506100ee60048036038101906100e991906111d6565b6102d5565b6040516100fd93929190611237565b60405180910390f35b34801561011257600080fd5b5061011b610319565b604051610128919061127d565b60405180910390f35b34801561013d57600080fd5b50610158600480360381019061015391906112c4565b61033f565b005b610174600480360381019061016f919061144a565b610661565b005b34801561018257600080fd5b5061018b610788565b60405161019891906114d5565b60405180910390f35b3480156101ad57600080fd5b506101c860048036038101906101c3919061151c565b610790565b005b3480156101d657600080fd5b506101f160048036038101906101ec91906112c4565b61095b565b005b61020d60048036038101906102089190611549565b610c89565b005b34801561021b57600080fd5b50610224610d98565b60405161023191906114d5565b60405180910390f35b34801561024657600080fd5b50610261600480360381019061025c91906111d6565b610d9e565b005b34801561026f57600080fd5b5061028a600480360381019061028591906115c1565b610f85565b604051610297919061127d565b60405180910390f35b6102a8610fc4565b005b3480156102b657600080fd5b506102bf611140565b6040516102cc919061127d565b60405180910390f35b60036020528060005260406000206000915090508060000160009054906101000a900460ff16908060010154908060020160009054906101000a900460ff16905083565b600260009054906101000a900473ffffffffffffffffffffffffffffffffffffffff1681565b600360003373ffffffffffffffffffffffffffffffffffffffff1673ffffffffffffffffffffffffffffffffffffffff16815260200190815260200160002060000160009054906101000a900460ff166103ce576040517f08c379a00000000000000000000000000000000000000000000000000000000081526004016103c59061164b565b60405180910390fd5b600360008373ffffffffffffffffffffffffffffffffffffffff1673ffffffffffffffffffffffffffffffffffffffff16815260200190815260200160002060010154811115610453576040517f08c379a000000000000000000000000000000000000000000000000000000000815260040161044a906116b7565b60405180910390fd5b60008111610496576040517f08c379a000000000000000000000000000000000000000000000000000000000815260040161048d90611723565b60405180910390fd5b60005b60048054905081101561059757600060036000600484815481106104c0576104bf611743565b5b9060005260206000200160009054906101000a900473ffffffffffffffffffffffffffffffffffffffff1673ffffffffffffffffffffffffffffffffffffffff1673ffffffffffffffffffffffffffffffffffffffff1681526020019081526020016000206040518060600160405290816000820160009054906101000a900460ff16151515158152602001600182015481526020016002820160009054906101000a900460ff1615151515815250509050600081604001901515908115158152505050808061058f906117a1565b915050610499565b508173ffffffffffffffffffffffffffffffffffffffff163373ffffffffffffffffffffffffffffffffffffffff167f68d3bd4df5e14f4c5f4a1110f8c2d3b5a9f7f3ba31ec9a2ef7ae0fcd3d0027b5836040516105f591906114d5565b60405180910390a361065d6040518060400160405280601081526020017f566f74696e6720496e697469617465640000000000000000000000000000000081525083836040516020016106499291906118f5565b604051602081830303815290604052610c89565b5050565b600260009054906101000a900473ffffffffffffffffffffffffffffffffffffffff1673ffffffffffffffffffffffffffffffffffffffff1663ba3d69d760008054906101000a900473ffffffffffffffffffffffffffffffffffffffff168585856040516020016106d4929190611a81565b6040516020818303038152906040526040518463ffffffff1660e01b815260040161070193929190611b31565b600060405180830381600087803b15801561071b57600080fd5b505af115801561072f573d6000803e3d6000fd5b505050508273ffffffffffffffffffffffffffffffffffffffff167f870f4d0b572ed516e58a94c6565cd26d9b40400520ecb83b1beb9a2332a09d11838360405161077b929190611ba8565b60405180910390a2505050565b600047905090565b600360003373ffffffffffffffffffffffffffffffffffffffff1673ffffffffffffffffffffffffffffffffffffffff16815260200190815260200160002060000160009054906101000a900460ff1661081f576040517f08c379a00000000000000000000000000000000000000000000000000000000081526004016108169061164b565b60405180910390fd5b600360003373ffffffffffffffffffffffffffffffffffffffff1673ffffffffffffffffffffffffffffffffffffffff16815260200190815260200160002060020160009054906101000a900460ff16156108af576040517f08c379a00000000000000000000000000000000000000000000000000000000081526004016108a690611c2b565b60405180910390fd5b6001600360003373ffffffffffffffffffffffffffffffffffffffff1673ffffffffffffffffffffffffffffffffffffffff16815260200190815260200160002060020160006101000a81548160ff0219169083151502179055503373ffffffffffffffffffffffffffffffffffffffff167fa4861c5510bfa99706ed508d728f9c6b365ff27af1a3012e21980952ad2d844f826040516109509190611c4b565b60405180910390a250565b6000811161099e576040517f08c379a000000000000000000000000000000000000000000000000000000000815260040161099590611723565b60405180910390fd5b600080600480549050905060005b81811015610a6a5760036000600483815481106109cc576109cb611743565b5b9060005260206000200160009054906101000a900473ffffffffffffffffffffffffffffffffffffffff1673ffffffffffffffffffffffffffffffffffffffff1673ffffffffffffffffffffffffffffffffffffffff16815260200190815260200160002060020160009054906101000a900460ff1615610a5757600183610a549190611c66565b92505b8080610a62906117a1565b9150506109ac565b50600281610a789190611cc9565b8211610ab9576040517f08c379a0000000000000000000000000000000000000000000000000000000008152600401610ab090611d46565b60405180910390fd5b600281610ac69190611cc9565b821015610b95578373ffffffffffffffffffffffffffffffffffffffff167f5081dbc5cd7e5f2dbbc105cc072b96c30da0376af642af97b9b4a7d7e1a259ba84604051610b1391906114d5565b60405180910390a2610b90846040518060400160405280601581526020017f46756e6473204e6f74205472616e7366657272656400000000000000000000008152506040518060400160405280601781526020017f596f75206c6f7374207468652067726f757020766f7465000000000000000000815250610661565b610c83565b8373ffffffffffffffffffffffffffffffffffffffff166108fc849081150290604051600060405180830381858888f19350505050158015610bdb573d6000803e3d6000fd5b508373ffffffffffffffffffffffffffffffffffffffff167f8c8f77105ce8ee99e391fd4da140bc14a988eb4cf878b240bfed9b10ae7c675884604051610c2291906114d5565b60405180910390a2610c82846040518060400160405280601181526020017f46756e6473205472616e73666572726564000000000000000000000000000000815250604051806060016040528060248152602001611ee660249139610661565b5b50505050565b600260009054906101000a900473ffffffffffffffffffffffffffffffffffffffff1673ffffffffffffffffffffffffffffffffffffffff1663ba3d69d760008054906101000a900473ffffffffffffffffffffffffffffffffffffffff16308585604051602001610cfc929190611db2565b6040516020818303038152906040526040518463ffffffff1660e01b8152600401610d2993929190611b31565b600060405180830381600087803b158015610d4357600080fd5b505af1158015610d57573d6000803e3d6000fd5b505050507fa1f5c7a87efc093eb41dc645484c2175d3ce0adb94a836e10ede04c3d1bf5def8282604051610d8c929190611ba8565b60405180910390a15050565b60015481565b600360008273ffffffffffffffffffffffffffffffffffffffff1673ffffffffffffffffffffffffffffffffffffffff16815260200190815260200160002060000160009054906101000a900460ff1615610e2e576040517f08c379a0000000000000000000000000000000000000000000000000000000008152600401610e2590611e59565b60405180910390fd5b60405180606001604052806001151581526020016000815260200160001515815250600360008373ffffffffffffffffffffffffffffffffffffffff1673ffffffffffffffffffffffffffffffffffffffff16815260200190815260200160002060008201518160000160006101000a81548160ff0219169083151502179055506020820151816001015560408201518160020160006101000a81548160ff0219169083151502179055509050506004819080600181540180825580915050600190039060005260206000200160009091909190916101000a81548173ffffffffffffffffffffffffffffffffffffffff021916908373ffffffffffffffffffffffffffffffffffffffff1602179055508073ffffffffffffffffffffffffffffffffffffffff167fb251eb052afc73ffd02ffe85ad79990a8b3fed60d76dbc2fa2fdd7123dffd91460405160405180910390a250565b60048181548110610f9557600080fd5b906000526020600020016000915054906101000a900473ffffffffffffffffffffffffffffffffffffffff1681565b600360003373ffffffffffffffffffffffffffffffffffffffff1673ffffffffffffffffffffffffffffffffffffffff16815260200190815260200160002060000160009054906101000a900460ff16611053576040517f08c379a000000000000000000000000000000000000000000000000000000000815260040161104a9061164b565b60405180910390fd5b6001543414611097576040517f08c379a000000000000000000000000000000000000000000000000000000000815260040161108e90611ec5565b60405180910390fd5b34600360003373ffffffffffffffffffffffffffffffffffffffff1673ffffffffffffffffffffffffffffffffffffffff16815260200190815260200160002060010160008282546110e99190611c66565b925050819055503373ffffffffffffffffffffffffffffffffffffffff167f4d154d4aae216bed6d0926db77c00df2b57c6b5ba4eee05775de20facede3a7b3460405161113691906114d5565b60405180910390a2565b60008054906101000a900473ffffffffffffffffffffffffffffffffffffffff1681565b6000604051905090565b600080fd5b600080fd5b600073ffffffffffffffffffffffffffffffffffffffff82169050919050565b60006111a382611178565b9050919050565b6111b381611198565b81146111be57600080fd5b50565b6000813590506111d0816111aa565b92915050565b6000602082840312156111ec576111eb61116e565b5b60006111fa848285016111c1565b91505092915050565b60008115159050919050565b61121881611203565b82525050565b6000819050919050565b6112318161121e565b82525050565b600060608201905061124c600083018661120f565b6112596020830185611228565b611266604083018461120f565b949350505050565b61127781611198565b82525050565b6000602082019050611292600083018461126e565b92915050565b6112a18161121e565b81146112ac57600080fd5b50565b6000813590506112be81611298565b92915050565b600080604083850312156112db576112da61116e565b5b60006112e9858286016111c1565b92505060206112fa858286016112af565b9150509250929050565b600080fd5b600080fd5b6000601f19601f8301169050919050565b7f4e487b7100000000000000000000000000000000000000000000000000000000600052604160045260246000fd5b6113578261130e565b810181811067ffffffffffffffff821117156113765761137561131f565b5b80604052505050565b6000611389611164565b9050611395828261134e565b919050565b600067ffffffffffffffff8211156113b5576113b461131f565b5b6113be8261130e565b9050602081019050919050565b82818337600083830152505050565b60006113ed6113e88461139a565b61137f565b90508281526020810184848401111561140957611408611309565b5b6114148482856113cb565b509392505050565b600082601f83011261143157611430611304565b5b81356114418482602086016113da565b91505092915050565b6000806000606084860312156114635761146261116e565b5b6000611471868287016111c1565b935050602084013567ffffffffffffffff81111561149257611491611173565b5b61149e8682870161141c565b925050604084013567ffffffffffffffff8111156114bf576114be611173565b5b6114cb8682870161141c565b9150509250925092565b60006020820190506114ea6000830184611228565b92915050565b6114f981611203565b811461150457600080fd5b50565b600081359050611516816114f0565b92915050565b6000602082840312156115325761153161116e565b5b600061154084828501611507565b91505092915050565b600080604083850312156115605761155f61116e565b5b600083013567ffffffffffffffff81111561157e5761157d611173565b5b61158a8582860161141c565b925050602083013567ffffffffffffffff8111156115ab576115aa611173565b5b6115b78582860161141c565b9150509250929050565b6000602082840312156115d7576115d661116e565b5b60006115e5848285016112af565b91505092915050565b600082825260208201905092915050565b7f4e6f742061206d656d6265720000000000000000000000000000000000000000600082015250565b6000611635600c836115ee565b9150611640826115ff565b602082019050919050565b6000602082019050818103600083015261166481611628565b9050919050565b7f496e73756666696369656e742066756e647320666f7220726563697069656e74600082015250565b60006116a16020836115ee565b91506116ac8261166b565b602082019050919050565b600060208201905081810360008301526116d081611694565b9050919050565b7f416d6f756e74206d7573742062652067726561746572207468616e207a65726f600082015250565b600061170d6020836115ee565b9150611718826116d7565b602082019050919050565b6000602082019050818103600083015261173c81611700565b9050919050565b7f4e487b7100000000000000000000000000000000000000000000000000000000600052603260045260246000fd5b7f4e487b7100000000000000000000000000000000000000000000000000000000600052601160045260246000fd5b60006117ac8261121e565b91507fffffffffffffffffffffffffffffffffffffffffffffffffffffffffffffffff82036117de576117dd611772565b5b600182019050919050565b60008160601b9050919050565b6000611801826117e9565b9050919050565b6000611813826117f6565b9050919050565b61182b61182682611198565b611808565b82525050565b600081905092915050565b7f2077616e747320746f2077697468647261772000000000000000000000000000600082015250565b6000611872601383611831565b915061187d8261183c565b601382019050919050565b6000819050919050565b6118a361189e8261121e565b611888565b82525050565b7f4554480000000000000000000000000000000000000000000000000000000000600082015250565b60006118df600383611831565b91506118ea826118a9565b600382019050919050565b6000611901828561181a565b60148201915061191082611865565b915061191c8284611892565b60208201915061192b826118d2565b91508190509392505050565b7f3000000000000000000000000000000000000000000000000000000000000000600082015250565b600061196d600183611831565b915061197882611937565b600182019050919050565b7f2b00000000000000000000000000000000000000000000000000000000000000600082015250565b60006119b9600183611831565b91506119c482611983565b600182019050919050565b7f3300000000000000000000000000000000000000000000000000000000000000600082015250565b6000611a05600183611831565b9150611a10826119cf565b600182019050919050565b600081519050919050565b60005b83811015611a44578082015181840152602081019050611a29565b60008484015250505050565b6000611a5b82611a1b565b611a658185611831565b9350611a75818560208601611a26565b80840191505092915050565b6000611a8c82611960565b9150611a97826119ac565b9150611aa2826119f8565b9150611aad826119ac565b9150611ab98285611a50565b9150611ac4826119ac565b9150611ad08284611a50565b91508190509392505050565b600081519050919050565b600082825260208201905092915050565b6000611b0382611adc565b611b0d8185611ae7565b9350611b1d818560208601611a26565b611b268161130e565b840191505092915050565b6000606082019050611b46600083018661126e565b611b53602083018561126e565b8181036040830152611b658184611af8565b9050949350505050565b6000611b7a82611a1b565b611b8481856115ee565b9350611b94818560208601611a26565b611b9d8161130e565b840191505092915050565b60006040820190508181036000830152611bc28185611b6f565b90508181036020830152611bd68184611b6f565b90509392505050565b7f416c726561647920766f74656400000000000000000000000000000000000000600082015250565b6000611c15600d836115ee565b9150611c2082611bdf565b602082019050919050565b60006020820190508181036000830152611c4481611c08565b9050919050565b6000602082019050611c60600083018461120f565b92915050565b6000611c718261121e565b9150611c7c8361121e565b9250828201905080821115611c9457611c93611772565b5b92915050565b7f4e487b7100000000000000000000000000000000000000000000000000000000600052601260045260246000fd5b6000611cd48261121e565b9150611cdf8361121e565b925082611cef57611cee611c9a565b5b828204905092915050565b7f496e73756666696369656e7420766f7465730000000000000000000000000000600082015250565b6000611d306012836115ee565b9150611d3b82611cfa565b602082019050919050565b60006020820190508181036000830152611d5f81611d23565b9050919050565b7f3100000000000000000000000000000000000000000000000000000000000000600082015250565b6000611d9c600183611831565b9150611da782611d66565b600182019050919050565b6000611dbd82611960565b9150611dc8826119ac565b9150611dd382611d8f565b9150611dde826119ac565b9150611dea8285611a50565b9150611df5826119ac565b9150611e018284611a50565b91508190509392505050565b7f4d656d62657220616c7265616479206578697374730000000000000000000000600082015250565b6000611e436015836115ee565b9150611e4e82611e0d565b602082019050919050565b60006020820190508181036000830152611e7281611e36565b9050919050565b7f496e76616c696420636f6e747269627574696f6e20616d6f756e740000000000600082015250565b6000611eaf601b836115ee565b9150611eba82611e79565b602082019050919050565b60006020820190508181036000830152611ede81611ea2565b905091905056fe596f752073686f756c64206861766520726563696576656420796f757220616d6f756e74a26469706673582212205003e472dacf2ceaf52fefa025232212ffa4639971e49e135be07e78065d3b9964736f6c63430008130033",
  "linkReferences": {},
  "deployedLinkReferences": {}
}